{
  "contractName": "MyContract",
  "abi": [
    {
      "constant": true,
      "inputs": [],
      "name": "controller_count",
      "outputs": [
        {
          "internalType": "uint256",
          "name": "",
          "type": "uint256"
        }
      ],
      "payable": false,
      "stateMutability": "view",
      "type": "function"
    },
    {
      "constant": true,
      "inputs": [
        {
          "internalType": "uint256",
          "name": "",
          "type": "uint256"
        }
      ],
      "name": "controllers",
      "outputs": [
        {
          "internalType": "uint256",
          "name": "id",
          "type": "uint256"
        },
        {
          "internalType": "string",
          "name": "name",
          "type": "string"
        },
        {
          "internalType": "string",
          "name": "ip_address",
          "type": "string"
        }
      ],
      "payable": false,
      "stateMutability": "view",
      "type": "function"
    },
    {
      "constant": true,
      "inputs": [],
      "name": "rule_count",
      "outputs": [
        {
          "internalType": "uint256",
          "name": "",
          "type": "uint256"
        }
      ],
      "payable": false,
      "stateMutability": "view",
      "type": "function"
    },
    {
      "constant": true,
      "inputs": [],
      "name": "switch_count",
      "outputs": [
        {
          "internalType": "uint256",
          "name": "",
          "type": "uint256"
        }
      ],
      "payable": false,
      "stateMutability": "view",
      "type": "function"
    },
    {
      "constant": true,
      "inputs": [
        {
          "internalType": "uint256",
          "name": "",
          "type": "uint256"
        }
      ],
      "name": "switches",
      "outputs": [
        {
          "internalType": "uint256",
          "name": "id",
          "type": "uint256"
        },
        {
          "internalType": "string",
          "name": "name",
          "type": "string"
        },
        {
          "internalType": "string",
          "name": "ip_address",
          "type": "string"
        },
        {
          "internalType": "uint256",
          "name": "rule_count",
          "type": "uint256"
        }
      ],
      "payable": false,
      "stateMutability": "view",
      "type": "function"
    },
    {
      "constant": false,
      "inputs": [
        {
          "internalType": "string",
          "name": "_name",
          "type": "string"
        },
        {
          "internalType": "string",
          "name": "_ip_address",
          "type": "string"
        }
      ],
      "name": "addController",
      "outputs": [],
      "payable": false,
      "stateMutability": "nonpayable",
      "type": "function"
    },
    {
      "constant": false,
      "inputs": [
        {
          "internalType": "uint256",
          "name": "switch_id",
          "type": "uint256"
        },
        {
          "internalType": "string",
          "name": "_name",
          "type": "string"
        },
        {
          "internalType": "string",
          "name": "_ip_address",
          "type": "string"
        }
      ],
      "name": "addSwitches",
      "outputs": [],
      "payable": false,
      "stateMutability": "nonpayable",
      "type": "function"
    },
    {
      "constant": false,
      "inputs": [
        {
          "internalType": "string",
          "name": "_src_mac",
          "type": "string"
        },
        {
          "internalType": "string",
          "name": "_dst_mac",
          "type": "string"
        },
        {
          "internalType": "uint256",
          "name": "_priority",
          "type": "uint256"
        },
        {
          "internalType": "uint256",
          "name": "_outport",
          "type": "uint256"
        },
        {
          "internalType": "uint256",
          "name": "_switch_id",
          "type": "uint256"
        }
      ],
      "name": "addRule",
      "outputs": [],
      "payable": false,
      "stateMutability": "nonpayable",
      "type": "function"
    },
    {
      "constant": true,
      "inputs": [
        {
          "internalType": "uint256",
          "name": "_switch_id",
          "type": "uint256"
        },
        {
          "internalType": "uint256",
          "name": "_rule_id",
          "type": "uint256"
        }
      ],
      "name": "getRules",
      "outputs": [
        {
          "internalType": "uint256",
          "name": "",
          "type": "uint256"
        },
        {
          "internalType": "string",
          "name": "",
          "type": "string"
        },
        {
          "internalType": "string",
          "name": "",
          "type": "string"
        },
        {
          "internalType": "uint256",
          "name": "",
          "type": "uint256"
        },
        {
          "internalType": "uint256",
          "name": "",
          "type": "uint256"
        }
      ],
      "payable": false,
      "stateMutability": "view",
      "type": "function"
    },
    {
      "constant": true,
      "inputs": [
        {
          "internalType": "uint256",
          "name": "_switch_id",
          "type": "uint256"
        }
      ],
      "name": "getRuleCount",
      "outputs": [
        {
          "internalType": "uint256",
          "name": "",
          "type": "uint256"
        }
      ],
      "payable": false,
      "stateMutability": "view",
      "type": "function"
    }
  ],
  "bytecode": "0x608060405260006002556000600355600060045534801561001f57600080fd5b5061116d8061002f6000396000f3fe608060405234801561001057600080fd5b506004361061009e5760003560e01c8063d29ed30a11610066578063d29ed30a146104d2578063e94b0dd214610642578063edc8f60b1461075c578063f5aa4c381461088e578063f86a8565146108ac5761009e565b8063083c173f146100a357806315d4aca2146100e55780634ce7693e14610103578063881ec10b14610255578063b91ad05014610376575b600080fd5b6100cf600480360360208110156100b957600080fd5b81019080803590602001909291905050506108ca565b6040518082815260200191505060405180910390f35b6100ed6108ea565b6040518082815260200191505060405180910390f35b6102536004803603604081101561011957600080fd5b810190808035906020019064010000000081111561013657600080fd5b82018360208201111561014857600080fd5b8035906020019184600183028401116401000000008311171561016a57600080fd5b91908080601f016020809104026020016040519081016040528093929190818152602001838380828437600081840152601f19601f820116905080830192505050505050509192919290803590602001906401000000008111156101cd57600080fd5b8201836020820111156101df57600080fd5b8035906020019184600183028401116401000000008311171561020157600080fd5b91908080601f016020809104026020016040519081016040528093929190818152602001838380828437600081840152601f19601f8201169050808301925050505050505091929192905050506108f0565b005b6102816004803603602081101561026b57600080fd5b810190808035906020019092919050505061097e565b604051808581526020018060200180602001848152602001838103835286818151815260200191508051906020019080838360005b838110156102d15780820151818401526020810190506102b6565b50505050905090810190601f1680156102fe5780820380516001836020036101000a031916815260200191505b50838103825285818151815260200191508051906020019080838360005b8381101561033757808201518184015260208101905061031c565b50505050905090810190601f1680156103645780820380516001836020036101000a031916815260200191505b50965050505050505060405180910390f35b6104d06004803603606081101561038c57600080fd5b8101908080359060200190929190803590602001906401000000008111156103b357600080fd5b8201836020820111156103c557600080fd5b803590602001918460018302840111640100000000831117156103e757600080fd5b91908080601f016020809104026020016040519081016040528093929190818152602001838380828437600081840152601f19601f8201169050808301925050505050505091929192908035906020019064010000000081111561044a57600080fd5b82018360208201111561045c57600080fd5b8035906020019184600183028401116401000000008311171561047e57600080fd5b91908080601f016020809104026020016040519081016040528093929190818152602001838380828437600081840152601f19601f820116905080830192505050505050509192919290505050610ade565b005b610640600480360360a08110156104e857600080fd5b810190808035906020019064010000000081111561050557600080fd5b82018360208201111561051757600080fd5b8035906020019184600183028401116401000000008311171561053957600080fd5b91908080601f016020809104026020016040519081016040528093929190818152602001838380828437600081840152601f19601f8201169050808301925050505050505091929192908035906020019064010000000081111561059c57600080fd5b8201836020820111156105ae57600080fd5b803590602001918460018302840111640100000000831117156105d057600080fd5b91908080601f016020809104026020016040519081016040528093929190818152602001838380828437600081840152601f19601f820116905080830192505050505050509192919290803590602001909291908035906020019092919080359060200190929190505050610b82565b005b61066e6004803603602081101561065857600080fd5b8101908080359060200190929190505050610c84565b604051808481526020018060200180602001838103835285818151815260200191508051906020019080838360005b838110156106b857808201518184015260208101905061069d565b50505050905090810190601f1680156106e55780820380516001836020036101000a031916815260200191505b50838103825284818151815260200191508051906020019080838360005b8381101561071e578082015181840152602081019050610703565b50505050905090810190601f16801561074b5780820380516001836020036101000a031916815260200191505b509550505050505060405180910390f35b6107926004803603604081101561077257600080fd5b810190808035906020019092919080359060200190929190505050610dde565b604051808681526020018060200180602001858152602001848152602001838103835287818151815260200191508051906020019080838360005b838110156107e85780820151818401526020810190506107cd565b50505050905090810190601f1680156108155780820380516001836020036101000a031916815260200191505b50838103825286818151815260200191508051906020019080838360005b8381101561084e578082015181840152602081019050610833565b50505050905090810190601f16801561087b5780820380516001836020036101000a031916815260200191505b5097505050505050505060405180910390f35b610896611007565b6040518082815260200191505060405180910390f35b6108b461100d565b6040518082815260200191505060405180910390f35b600060016000838152602001908152602001600020600301549050919050565b60035481565b60026000815480929190600101919050555060405180606001604052806003548152602001838152602001828152506000806002548152602001908152602001600020600082015181600001556020820151816001019080519060200190610959929190611013565b506040820151816002019080519060200190610976929190611013565b509050505050565b6001602052806000526040600020600091509050806000015490806001018054600181600116156101000203166002900480601f016020809104026020016040519081016040528092919081815260200182805460018160011615610100020316600290048015610a305780601f10610a0557610100808354040283529160200191610a30565b820191906000526020600020905b815481529060010190602001808311610a1357829003601f168201915b505050505090806002018054600181600116156101000203166002900480601f016020809104026020016040519081016040528092919081815260200182805460018160011615610100020316600290048015610ace5780601f10610aa357610100808354040283529160200191610ace565b820191906000526020600020905b815481529060010190602001808311610ab157829003601f168201915b5050505050908060030154905084565b60036000815480929190600101919050555082600160008581526020019081526020016000206000018190555081600160008581526020019081526020016000206001019080519060200190610b35929190611093565b5080600160008581526020019081526020016000206002019080519060200190610b60929190611093565b5060006001600085815260200190815260200160002060030181905550505050565b60016000828152602001908152602001600020600301600081548092919060010191905055506040518060a00160405280600160008481526020019081526020016000206003015481526020018681526020018581526020018481526020018381525060016000838152602001908152602001600020600401600060016000858152602001908152602001600020600301548152602001908152602001600020600082015181600001556020820151816001019080519060200190610c48929190611013565b506040820151816002019080519060200190610c65929190611013565b5060608201518160030155608082015181600401559050505050505050565b6000602052806000526040600020600091509050806000015490806001018054600181600116156101000203166002900480601f016020809104026020016040519081016040528092919081815260200182805460018160011615610100020316600290048015610d365780601f10610d0b57610100808354040283529160200191610d36565b820191906000526020600020905b815481529060010190602001808311610d1957829003601f168201915b505050505090806002018054600181600116156101000203166002900480601f016020809104026020016040519081016040528092919081815260200182805460018160011615610100020316600290048015610dd45780601f10610da957610100808354040283529160200191610dd4565b820191906000526020600020905b815481529060010190602001808311610db757829003601f168201915b5050505050905083565b600060608060008060016000888152602001908152602001600020600401600087815260200190815260200160002060000154600160008981526020019081526020016000206004016000888152602001908152602001600020600101600160008a81526020019081526020016000206004016000898152602001908152602001600020600201600160008b815260200190815260200160002060040160008a815260200190815260200160002060030154600160008c815260200190815260200160002060040160008b815260200190815260200160002060040154838054600181600116156101000203166002900480601f016020809104026020016040519081016040528092919081815260200182805460018160011615610100020316600290048015610f505780601f10610f2557610100808354040283529160200191610f50565b820191906000526020600020905b815481529060010190602001808311610f3357829003601f168201915b50505050509350828054600181600116156101000203166002900480601f016020809104026020016040519081016040528092919081815260200182805460018160011615610100020316600290048015610fec5780601f10610fc157610100808354040283529160200191610fec565b820191906000526020600020905b815481529060010190602001808311610fcf57829003601f168201915b50505050509250945094509450945094509295509295909350565b60025481565b60045481565b828054600181600116156101000203166002900490600052602060002090601f016020900481019282601f1061105457805160ff1916838001178555611082565b82800160010185558215611082579182015b82811115611081578251825591602001919060010190611066565b5b50905061108f9190611113565b5090565b828054600181600116156101000203166002900490600052602060002090601f016020900481019282601f106110d457805160ff1916838001178555611102565b82800160010185558215611102579182015b828111156111015782518255916020019190600101906110e6565b5b50905061110f9190611113565b5090565b61113591905b80821115611131576000816000905550600101611119565b5090565b9056fea265627a7a723158202e4678e6fa308ac5dd926169fd6e1d837dca2e717dfc04414542ab6d1788cf1564736f6c63430005100032",
  "source": "pragma solidity >=0.4.22 <0.9.0;\n\ncontract MyContract{\n    \n    struct Controller{\n        uint256 id;\n        string name;\n        string ip_address;\n    }\n\n\n    struct Flow_info{\n        uint rule_id;\n        string src_mac;\n        string dst_mac;\n        uint priority;\n        uint outport;\n    }\n\n    struct Switch{\n        uint256 id;\n        string name;\n        string ip_address;\n        uint rule_count;\n        mapping(uint => Flow_info) rules;\n    }\n    \n        \n    mapping(uint => Controller) public controllers;\n    mapping(uint => Switch) public switches;\n\n    \n    uint public controller_count = 0;\n    uint public switch_count = 0;\n    uint public rule_count = 0;\n    \n\n    function addController(string memory _name, string memory _ip_address ) public{\n        controller_count++;\n        controllers[controller_count] = Controller(switch_count, _name, _ip_address);\n    }\n    \n    function addSwitches(uint switch_id, string memory _name, string memory _ip_address ) public{\n        switch_count++;\n                \n        switches[switch_id].id = switch_id;\n        switches[switch_id].name = _name;\n        switches[switch_id].ip_address = _ip_address;\n        switches[switch_id].rule_count = 0;\n    }\n    \n    \n    function addRule(string memory _src_mac, string memory _dst_mac, uint _priority, uint _outport, uint _switch_id) public{\n        switches[_switch_id].rule_count++; \n        switches[_switch_id].rules[switches[_switch_id].rule_count] = Flow_info(switches[_switch_id].rule_count, _src_mac, _dst_mac, _priority, _outport);\n    }\n    \n    function getRules(uint _switch_id, uint _rule_id) view public returns (uint, string memory, string memory, uint, uint) {\n        return (switches[_switch_id].rules[_rule_id].rule_id, switches[_switch_id].rules[_rule_id].src_mac, switches[_switch_id].rules[_rule_id].dst_mac, switches[_switch_id].rules[_rule_id].priority, switches[_switch_id].rules[_rule_id].outport);\n    }\n\n    function getRuleCount(uint _switch_id) view public returns(uint){\n        return switches[_switch_id].rule_count;\n    }\n\n\n\n\n    /*\n    function verifyFlowRules(uint _switch_id, uint _rule_id, string memory _SRC, string memory _DST, uint _priority, uint _OUTPORT) view public returns (uint) {\n        uint status = 0;\n\n        \n        string src = switches[_switch_id].rules[_rule_id].src_mac;\n        string dst = switches[_switch_id].rules[_rule_id].dst_mac;\n        string priority = switches[_switch_id].rules[_rule_id].priority;\n        uint outport = switches[_switch_id].rules[_rule_id].outport;\n\n        // check the similarity\n\n        if src == _SRC && dst == _DST && outport == _OUTPORT && priority == _priority {\n            return 1;\n        }\n        else{\n            return 0;\n        }\n    }\n    */\n\n    \n}\n",
  "sourcePath": "/home/ubuntu20/Desktop/AgentProject/contracts/MyContract.sol",
  "compiler": {
    "name": "solc",
    "version": "0.5.16+commit.9c3226ce.Emscripten.clang"
  },
  "schemaVersion": "3.3.4",
  "updatedAt": "2021-04-26T04:28:41.793Z",
  "networkType": "ethereum",
  "devdoc": {
    "methods": {}
  },
  "userdoc": {
    "methods": {}
  }
}